{
  "contractName": "Tournir",
  "abi": [
    {
      "inputs": [
        {
          "internalType": "address",
          "name": "owner_",
          "type": "address"
        },
        {
          "internalType": "address",
          "name": "paymentToken_",
          "type": "address"
        },
        {
          "internalType": "uint256",
          "name": "memberContribution_",
          "type": "uint256"
        }
      ],
      "stateMutability": "nonpayable",
      "type": "constructor"
    },
    {
      "anonymous": false,
      "inputs": [
        {
          "indexed": false,
          "internalType": "uint256",
          "name": "roomNumber",
          "type": "uint256"
        }
      ],
      "name": "LogClearRoom",
      "type": "event"
    },
    {
      "anonymous": false,
      "inputs": [
        {
          "indexed": false,
          "internalType": "address",
          "name": "member",
          "type": "address"
        }
      ],
      "name": "LogContributionPayed",
      "type": "event"
    },
    {
      "anonymous": false,
      "inputs": [
        {
          "indexed": false,
          "internalType": "uint256",
          "name": "roomNumber",
          "type": "uint256"
        }
      ],
      "name": "LogNewRoomRegistered",
      "type": "event"
    },
    {
      "anonymous": false,
      "inputs": [
        {
          "indexed": false,
          "internalType": "uint256",
          "name": "roomNumber",
          "type": "uint256"
        },
        {
          "indexed": false,
          "internalType": "address",
          "name": "teamO",
          "type": "address"
        }
      ],
      "name": "LogRegisterJInRoom",
      "type": "event"
    },
    {
      "anonymous": false,
      "inputs": [
        {
          "indexed": false,
          "internalType": "uint256",
          "name": "roomNumber",
          "type": "uint256"
        },
        {
          "indexed": false,
          "internalType": "address",
          "name": "teamO",
          "type": "address"
        }
      ],
      "name": "LogRegisterOInRoom",
      "type": "event"
    },
    {
      "anonymous": false,
      "inputs": [
        {
          "indexed": false,
          "internalType": "uint256",
          "name": "roomNumber",
          "type": "uint256"
        },
        {
          "indexed": false,
          "internalType": "address",
          "name": "teamO",
          "type": "address"
        }
      ],
      "name": "LogRegisterPInRoom",
      "type": "event"
    },
    {
      "anonymous": false,
      "inputs": [
        {
          "indexed": false,
          "internalType": "uint256",
          "name": "roomNumber",
          "type": "uint256"
        }
      ],
      "name": "LogRoomDeleted",
      "type": "event"
    },
    {
      "anonymous": false,
      "inputs": [
        {
          "indexed": false,
          "internalType": "address",
          "name": "member",
          "type": "address"
        },
        {
          "indexed": false,
          "internalType": "uint256",
          "name": "balance",
          "type": "uint256"
        }
      ],
      "name": "LogWinningPayed",
      "type": "event"
    },
    {
      "anonymous": false,
      "inputs": [
        {
          "indexed": false,
          "internalType": "uint256",
          "name": "balance",
          "type": "uint256"
        }
      ],
      "name": "LogWithdrawn",
      "type": "event"
    },
    {
      "inputs": [],
      "name": "memberContribution",
      "outputs": [
        {
          "internalType": "uint256",
          "name": "",
          "type": "uint256"
        }
      ],
      "stateMutability": "view",
      "type": "function",
      "constant": true
    },
    {
      "inputs": [],
      "name": "owner",
      "outputs": [
        {
          "internalType": "address",
          "name": "",
          "type": "address"
        }
      ],
      "stateMutability": "view",
      "type": "function",
      "constant": true
    },
    {
      "inputs": [],
      "name": "paymentToken",
      "outputs": [
        {
          "internalType": "address",
          "name": "",
          "type": "address"
        }
      ],
      "stateMutability": "view",
      "type": "function",
      "constant": true
    },
    {
      "inputs": [
        {
          "internalType": "uint256",
          "name": "",
          "type": "uint256"
        }
      ],
      "name": "rooms",
      "outputs": [
        {
          "internalType": "bool",
          "name": "available",
          "type": "bool"
        },
        {
          "internalType": "address",
          "name": "teamP",
          "type": "address"
        },
        {
          "internalType": "address",
          "name": "teamO",
          "type": "address"
        },
        {
          "internalType": "address",
          "name": "judge",
          "type": "address"
        }
      ],
      "stateMutability": "view",
      "type": "function",
      "constant": true
    },
    {
      "inputs": [
        {
          "internalType": "uint256",
          "name": "roomNumber_",
          "type": "uint256"
        }
      ],
      "name": "registerRoom",
      "outputs": [],
      "stateMutability": "nonpayable",
      "type": "function"
    },
    {
      "inputs": [
        {
          "internalType": "uint256",
          "name": "roomNumber_",
          "type": "uint256"
        },
        {
          "internalType": "address",
          "name": "teamO",
          "type": "address"
        },
        {
          "internalType": "address",
          "name": "teamP",
          "type": "address"
        },
        {
          "internalType": "address",
          "name": "judge",
          "type": "address"
        }
      ],
      "name": "bookRoom",
      "outputs": [],
      "stateMutability": "nonpayable",
      "type": "function"
    },
    {
      "inputs": [
        {
          "internalType": "uint256",
          "name": "roomNumber_",
          "type": "uint256"
        }
      ],
      "name": "unbookRoom",
      "outputs": [],
      "stateMutability": "nonpayable",
      "type": "function"
    },
    {
      "inputs": [
        {
          "internalType": "uint256",
          "name": "roomNumber_",
          "type": "uint256"
        }
      ],
      "name": "deleteRoom",
      "outputs": [],
      "stateMutability": "nonpayable",
      "type": "function"
    },
    {
      "inputs": [
        {
          "internalType": "address",
          "name": "member",
          "type": "address"
        }
      ],
      "name": "payWinning",
      "outputs": [],
      "stateMutability": "nonpayable",
      "type": "function"
    },
    {
      "inputs": [],
      "name": "payContribution",
      "outputs": [],
      "stateMutability": "nonpayable",
      "type": "function"
    },
    {
      "inputs": [],
      "name": "withdraw",
      "outputs": [],
      "stateMutability": "nonpayable",
      "type": "function"
    }
  ],
  "bytecode": "0x60806040523480156200001157600080fd5b5060405162001b5238038062001b5283398181016040528101906200003791906200016d565b826000806101000a81548173ffffffffffffffffffffffffffffffffffffffff021916908373ffffffffffffffffffffffffffffffffffffffff16021790555081600160006101000a81548173ffffffffffffffffffffffffffffffffffffffff021916908373ffffffffffffffffffffffffffffffffffffffff16021790555080600281905550505050620001c9565b600080fd5b600073ffffffffffffffffffffffffffffffffffffffff82169050919050565b6000620000fa82620000cd565b9050919050565b6200010c81620000ed565b81146200011857600080fd5b50565b6000815190506200012c8162000101565b92915050565b6000819050919050565b620001478162000132565b81146200015357600080fd5b50565b60008151905062000167816200013c565b92915050565b600080600060608486031215620001895762000188620000c8565b5b600062000199868287016200011b565b9350506020620001ac868287016200011b565b9250506040620001bf8682870162000156565b9150509250925092565b61197980620001d96000396000f3fe608060405234801561001057600080fd5b50600436106100c6576000357c010000000000000000000000000000000000000000000000000000000090048063682b71001161008e578063682b71001461015e57806370f19cfe1461017a5780638da5cb5b14610198578063bcdfc5ad146101b6578063cd63cf7f146101d2578063f89ebc68146101ee576100c6565b80631524e633146100cb5780631ad4e699146100e75780631bae0ac8146101035780633013ce29146101365780633ccfd60b14610154575b600080fd5b6100e560048036038101906100e09190611353565b6101f8565b005b61010160048036038101906100fc91906113de565b610365565b005b61011d60048036038101906101189190611353565b610627565b60405161012d9493929190611435565b60405180910390f35b61013e6106c4565b60405161014b919061147a565b60405180910390f35b61015c6106ea565b005b61017860048036038101906101739190611353565b61094d565b005b610182610b1e565b60405161018f91906114a4565b60405180910390f35b6101a0610b24565b6040516101ad919061147a565b60405180910390f35b6101d060048036038101906101cb91906114bf565b610b48565b005b6101ec60048036038101906101e79190611353565b610faf565b005b6101f661121e565b005b60008054906101000a900473ffffffffffffffffffffffffffffffffffffffff1673ffffffffffffffffffffffffffffffffffffffff163373ffffffffffffffffffffffffffffffffffffffff1614610286576040517f08c379a000000000000000000000000000000000000000000000000000000000815260040161027d90611583565b60405180910390fd5b6000811180156102bd5750600015156003600083815260200190815260200160002060000160009054906101000a900460ff161515145b6102fc576040517f08c379a00000000000000000000000000000000000000000000000000000000081526004016102f3906115ef565b60405180910390fd5b60016003600083815260200190815260200160002060000160006101000a81548160ff0219169083151502179055507fc2c13c5405224b952d98661de906dbff6cd91d94deb0c1a19787f3a78ab243848160405161035a91906114a4565b60405180910390a150565b60008054906101000a900473ffffffffffffffffffffffffffffffffffffffff1673ffffffffffffffffffffffffffffffffffffffff163373ffffffffffffffffffffffffffffffffffffffff16146103f3576040517f08c379a00000000000000000000000000000000000000000000000000000000081526004016103ea90611583565b60405180910390fd5b600073ffffffffffffffffffffffffffffffffffffffff168173ffffffffffffffffffffffffffffffffffffffff161415610463576040517f08c379a000000000000000000000000000000000000000000000000000000000815260040161045a9061165b565b60405180910390fd5b6000600a600160009054906101000a900473ffffffffffffffffffffffffffffffffffffffff1673ffffffffffffffffffffffffffffffffffffffff166370a08231306040518263ffffffff167c01000000000000000000000000000000000000000000000000000000000281526004016104de919061147a565b602060405180830381865afa1580156104fb573d6000803e3d6000fd5b505050506040513d601f19601f8201168201806040525081019061051f9190611690565b61052991906116ec565b9050600160009054906101000a900473ffffffffffffffffffffffffffffffffffffffff1673ffffffffffffffffffffffffffffffffffffffff166323b872dd3084846040518463ffffffff167c01000000000000000000000000000000000000000000000000000000000281526004016105a69392919061171d565b6020604051808303816000875af11580156105c5573d6000803e3d6000fd5b505050506040513d601f19601f820116820180604052508101906105e99190611780565b507fd6100926b91a9727b97cb96aa12ef5639d57d02d9289d01d742ebaa8644f2507828260405161061b9291906117ad565b60405180910390a15050565b60036020528060005260406000206000915090508060000160009054906101000a900460ff16908060000160019054906101000a900473ffffffffffffffffffffffffffffffffffffffff16908060010160009054906101000a900473ffffffffffffffffffffffffffffffffffffffff16908060020160009054906101000a900473ffffffffffffffffffffffffffffffffffffffff16905084565b600160009054906101000a900473ffffffffffffffffffffffffffffffffffffffff1681565b60008054906101000a900473ffffffffffffffffffffffffffffffffffffffff1673ffffffffffffffffffffffffffffffffffffffff163373ffffffffffffffffffffffffffffffffffffffff1614610778576040517f08c379a000000000000000000000000000000000000000000000000000000000815260040161076f90611583565b60405180910390fd5b6000600160009054906101000a900473ffffffffffffffffffffffffffffffffffffffff1673ffffffffffffffffffffffffffffffffffffffff166370a08231306040518263ffffffff167c01000000000000000000000000000000000000000000000000000000000281526004016107f1919061147a565b602060405180830381865afa15801561080e573d6000803e3d6000fd5b505050506040513d601f19601f820116820180604052508101906108329190611690565b9050600160009054906101000a900473ffffffffffffffffffffffffffffffffffffffff1673ffffffffffffffffffffffffffffffffffffffff166323b872dd3060008054906101000a900473ffffffffffffffffffffffffffffffffffffffff16846040518463ffffffff167c01000000000000000000000000000000000000000000000000000000000281526004016108cf9392919061171d565b6020604051808303816000875af11580156108ee573d6000803e3d6000fd5b505050506040513d601f19601f820116820180604052508101906109129190611780565b507ff174a8805a92c0a4264ff6d59294470842e20eb1f760eb5169994cbf458556b28160405161094291906114a4565b60405180910390a150565b60008054906101000a900473ffffffffffffffffffffffffffffffffffffffff1673ffffffffffffffffffffffffffffffffffffffff163373ffffffffffffffffffffffffffffffffffffffff16146109db576040517f08c379a00000000000000000000000000000000000000000000000000000000081526004016109d290611583565b60405180910390fd5b600115156003600083815260200190815260200160002060000160009054906101000a900460ff16151514610a45576040517f08c379a0000000000000000000000000000000000000000000000000000000008152600401610a3c90611822565b60405180910390fd5b60036000828152602001908152602001600020600080820160006101000a81549060ff02191690556000820160016101000a81549073ffffffffffffffffffffffffffffffffffffffff02191690556001820160006101000a81549073ffffffffffffffffffffffffffffffffffffffff02191690556002820160006101000a81549073ffffffffffffffffffffffffffffffffffffffff021916905550507f95b30be49980c048341c41f3315d0cd1af617b80da9da17a4f01d7857c26c32c81604051610b1391906114a4565b60405180910390a150565b60025481565b60008054906101000a900473ffffffffffffffffffffffffffffffffffffffff1681565b60008054906101000a900473ffffffffffffffffffffffffffffffffffffffff1673ffffffffffffffffffffffffffffffffffffffff163373ffffffffffffffffffffffffffffffffffffffff1614610bd6576040517f08c379a0000000000000000000000000000000000000000000000000000000008152600401610bcd90611583565b60405180910390fd5b600084118015610c0d5750600115156003600086815260200190815260200160002060000160009054906101000a900460ff161515145b610c4c576040517f08c379a0000000000000000000000000000000000000000000000000000000008152600401610c439061188e565b60405180910390fd5b600073ffffffffffffffffffffffffffffffffffffffff166003600086815260200190815260200160002060000160019054906101000a900473ffffffffffffffffffffffffffffffffffffffff1673ffffffffffffffffffffffffffffffffffffffff1614158015610d225750600073ffffffffffffffffffffffffffffffffffffffff166003600086815260200190815260200160002060010160009054906101000a900473ffffffffffffffffffffffffffffffffffffffff1673ffffffffffffffffffffffffffffffffffffffff1614155b8015610d915750600073ffffffffffffffffffffffffffffffffffffffff166003600086815260200190815260200160002060020160009054906101000a900473ffffffffffffffffffffffffffffffffffffffff1673ffffffffffffffffffffffffffffffffffffffff1614155b610dd0576040517f08c379a0000000000000000000000000000000000000000000000000000000008152600401610dc7906118fa565b60405180910390fd5b60006003600086815260200190815260200160002060000160006101000a81548160ff021916908315150217905550826003600086815260200190815260200160002060010160006101000a81548173ffffffffffffffffffffffffffffffffffffffff021916908373ffffffffffffffffffffffffffffffffffffffff1602179055507fbfe6688435480834afcf5d977af110fd494a875c33d4def6031989dfd07fb5d48484604051610e8592919061191a565b60405180910390a1816003600086815260200190815260200160002060000160016101000a81548173ffffffffffffffffffffffffffffffffffffffff021916908373ffffffffffffffffffffffffffffffffffffffff1602179055507f6c3b1fe61800038acbb39d2465a076482cb011def3a57071e2109c38c24439f58483604051610f1392919061191a565b60405180910390a1806003600086815260200190815260200160002060020160006101000a81548173ffffffffffffffffffffffffffffffffffffffff021916908373ffffffffffffffffffffffffffffffffffffffff1602179055507f0985c1838d2087e458a55e31cdb0e1c3945240ea9b5ea3bcb6f4204cf0eab68d8482604051610fa192919061191a565b60405180910390a150505050565b60008054906101000a900473ffffffffffffffffffffffffffffffffffffffff1673ffffffffffffffffffffffffffffffffffffffff163373ffffffffffffffffffffffffffffffffffffffff161461103d576040517f08c379a000000000000000000000000000000000000000000000000000000000815260040161103490611583565b60405180910390fd5b6000811180156110745750600015156003600083815260200190815260200160002060000160009054906101000a900460ff161515145b6110b3576040517f08c379a00000000000000000000000000000000000000000000000000000000081526004016110aa906115ef565b60405180910390fd5b60016003600083815260200190815260200160002060000160006101000a81548160ff02191690831515021790555060006003600083815260200190815260200160002060010160006101000a81548173ffffffffffffffffffffffffffffffffffffffff021916908373ffffffffffffffffffffffffffffffffffffffff16021790555060006003600083815260200190815260200160002060000160016101000a81548173ffffffffffffffffffffffffffffffffffffffff021916908373ffffffffffffffffffffffffffffffffffffffff16021790555060006003600083815260200190815260200160002060020160006101000a81548173ffffffffffffffffffffffffffffffffffffffff021916908373ffffffffffffffffffffffffffffffffffffffff1602179055507fac7f8b14ecb71cf2304f6e2b3212e76b325ccdb3c04d9cad369f6a2b7209a3238160405161121391906114a4565b60405180910390a150565b600160009054906101000a900473ffffffffffffffffffffffffffffffffffffffff1673ffffffffffffffffffffffffffffffffffffffff166323b872dd33306002546040518463ffffffff167c010000000000000000000000000000000000000000000000000000000002815260040161129b9392919061171d565b6020604051808303816000875af11580156112ba573d6000803e3d6000fd5b505050506040513d601f19601f820116820180604052508101906112de9190611780565b507f89da3668965a5865eda91af87dd9aeb7747de93d14d207cefb28a61d718878f93360405161130e919061147a565b60405180910390a1565b600080fd5b6000819050919050565b6113308161131d565b811461133b57600080fd5b50565b60008135905061134d81611327565b92915050565b60006020828403121561136957611368611318565b5b60006113778482850161133e565b91505092915050565b600073ffffffffffffffffffffffffffffffffffffffff82169050919050565b60006113ab82611380565b9050919050565b6113bb816113a0565b81146113c657600080fd5b50565b6000813590506113d8816113b2565b92915050565b6000602082840312156113f4576113f3611318565b5b6000611402848285016113c9565b91505092915050565b60008115159050919050565b6114208161140b565b82525050565b61142f816113a0565b82525050565b600060808201905061144a6000830187611417565b6114576020830186611426565b6114646040830185611426565b6114716060830184611426565b95945050505050565b600060208201905061148f6000830184611426565b92915050565b61149e8161131d565b82525050565b60006020820190506114b96000830184611495565b92915050565b600080600080608085870312156114d9576114d8611318565b5b60006114e78782880161133e565b94505060206114f8878288016113c9565b9350506040611509878288016113c9565b925050606061151a878288016113c9565b91505092959194509250565b600082825260208201905092915050565b7f4552524f523a3a41555448000000000000000000000000000000000000000000600082015250565b600061156d600b83611526565b915061157882611537565b602082019050919050565b6000602082019050818103600083015261159c81611560565b9050919050565b7f4552524f523a3a414c52454144595f415641494c41424c450000000000000000600082015250565b60006115d9601883611526565b91506115e4826115a3565b602082019050919050565b60006020820190508181036000830152611608816115cc565b9050919050565b7f4552524f523a3a494e56414c49445f4d454d4245520000000000000000000000600082015250565b6000611645601583611526565b91506116508261160f565b602082019050919050565b6000602082019050818103600083015261167481611638565b9050919050565b60008151905061168a81611327565b92915050565b6000602082840312156116a6576116a5611318565b5b60006116b48482850161167b565b91505092915050565b7f4e487b7100000000000000000000000000000000000000000000000000000000600052601260045260246000fd5b60006116f78261131d565b91506117028361131d565b925082611712576117116116bd565b5b828204905092915050565b60006060820190506117326000830186611426565b61173f6020830185611426565b61174c6040830184611495565b949350505050565b61175d8161140b565b811461176857600080fd5b50565b60008151905061177a81611754565b92915050565b60006020828403121561179657611795611318565b5b60006117a48482850161176b565b91505092915050565b60006040820190506117c26000830185611426565b6117cf6020830184611495565b9392505050565b7f4552524f523a3a494e56414c49445f414354494f4e0000000000000000000000600082015250565b600061180c601583611526565b9150611817826117d6565b602082019050919050565b6000602082019050818103600083015261183b816117ff565b9050919050565b7f4552524f523a3a414c52454144595f424f4f4b45440000000000000000000000600082015250565b6000611878601583611526565b915061188382611842565b602082019050919050565b600060208201905081810360008301526118a78161186b565b9050919050565b7f4552524f523a3a494e56414c49445f4d454d4245525300000000000000000000600082015250565b60006118e4601683611526565b91506118ef826118ae565b602082019050919050565b60006020820190508181036000830152611913816118d7565b9050919050565b600060408201905061192f6000830185611495565b61193c6020830184611426565b939250505056fea2646970667358221220e6168f6a211d5b7d7ae543f9c3029f2f93f71b05061b8adb33445d7afbcac78c64736f6c634300080a0033",
  "immutableReferences": {},
  "source": "pragma solidity ^0.8.0;\r\n\r\nimport \"@openzeppelin/contracts/token/ERC20/IERC20.sol\";\r\n\r\ncontract Tournir {\r\n\r\n    event LogRegisterOInRoom(uint256 roomNumber, address teamO);\r\n    event LogRegisterPInRoom(uint256 roomNumber, address teamO);\r\n    event LogRegisterJInRoom(uint256 roomNumber, address teamO);\r\n    event LogClearRoom(uint256 roomNumber);\r\n    event LogNewRoomRegistered(uint256 roomNumber);\r\n    event LogRoomDeleted(uint256 roomNumber);\r\n    event LogContributionPayed(address member);\r\n    event LogWithdrawn(uint256 balance);\r\n    event LogWinningPayed(address member, uint256 balance);\r\n\r\n    address public owner;\r\n    address public paymentToken;\r\n    uint256 public memberContribution;\r\n\r\n    modifier onlyOwner(){\r\n        require(msg.sender==owner, \"ERROR::AUTH\");\r\n        _;\r\n    }\r\n\r\n    struct Room{\r\n        bool available;\r\n        address teamP;\r\n        address teamO;\r\n        address judge;\r\n    }\r\n\r\n    //hashtable\r\n    mapping(uint256=>Room) public rooms;\r\n\r\n    constructor(\r\n        address owner_,\r\n        address paymentToken_,\r\n        uint256 memberContribution_\r\n    ){\r\n        owner=owner_;\r\n        paymentToken=paymentToken_;\r\n        memberContribution=memberContribution_;\r\n    }\r\n\r\n    function registerRoom(uint256 roomNumber_) external onlyOwner{\r\n        require(roomNumber_>0 &&rooms[roomNumber_].available==false, \"ERROR::ALREADY_AVAILABLE\");\r\n        rooms[roomNumber_].available = true;\r\n        emit LogNewRoomRegistered(roomNumber_);\r\n    }\r\n\r\n    function bookRoom(uint256 roomNumber_, address teamO, address teamP, address judge) external onlyOwner{\r\n        require(roomNumber_>0 &&rooms[roomNumber_].available==true, \"ERROR::ALREADY_BOOKED\");\r\n        require(rooms[roomNumber_].teamP!=address(0) && rooms[roomNumber_].teamO!=address(0) && rooms[roomNumber_].judge!=address(0),\"ERROR::INVALID_MEMBERS\");\r\n\r\n        rooms[roomNumber_].available = false;\r\n\r\n        rooms[roomNumber_].teamO=teamO;\r\n        emit LogRegisterOInRoom(roomNumber_, teamO);\r\n        rooms[roomNumber_].teamP=teamP;\r\n        emit LogRegisterPInRoom(roomNumber_, teamP);\r\n        rooms[roomNumber_].judge=judge;\r\n        emit LogRegisterJInRoom(roomNumber_, judge);\r\n    }\r\n\r\n    function unbookRoom(uint256 roomNumber_) external onlyOwner{\r\n        require(roomNumber_>0 &&rooms[roomNumber_].available==false, \"ERROR::ALREADY_AVAILABLE\");\r\n\r\n        rooms[roomNumber_].available = true;\r\n\r\n        rooms[roomNumber_].teamO=address(0);\r\n        rooms[roomNumber_].teamP=address(0);\r\n        rooms[roomNumber_].judge=address(0);\r\n\r\n        emit LogClearRoom(roomNumber_);\r\n    }\r\n\r\n    function deleteRoom(uint256 roomNumber_) external onlyOwner {\r\n        require(\r\n            rooms[roomNumber_].available == true,\r\n            \"ERROR::INVALID_ACTION\"\r\n        );\r\n\r\n        delete rooms[roomNumber_];\r\n\r\n        emit LogRoomDeleted(roomNumber_);\r\n    }\r\n\r\n    function payWinning(address member) external onlyOwner {\r\n        require(\r\n            member != address(0),\r\n            \"ERROR::INVALID_MEMBER\"\r\n        );\r\n\r\n        uint256 balance = IERC20(paymentToken).balanceOf(address(this))/10;\r\n        IERC20(paymentToken).transferFrom(address(this), member, balance);\r\n        emit LogWinningPayed(member, balance);\r\n    }\r\n\r\n    function payContribution() external{\r\n        IERC20(paymentToken).transferFrom(msg.sender, address(this),memberContribution);\r\n\r\n        emit LogContributionPayed(msg.sender);\r\n    }\r\n\r\n    function withdraw() external onlyOwner {\r\n        uint256 balance = IERC20(paymentToken).balanceOf(address(this));\r\n        IERC20(paymentToken).transferFrom(address(this), owner, balance);\r\n        emit LogWithdrawn(balance);\r\n    }\r\n\r\n}\r\n",
  "sourcePath": "F:\\Proga\\Maga\\2Kurs\\Crypta\\contracts\\Tournir.sol",
  "compiler": {
    "name": "solc",
    "version": "0.8.10+commit.fc410830.Emscripten.clang"
  },
  "schemaVersion": "3.4.4",
  "updatedAt": "2021-12-23T14:28:31.052Z",
  "networkType": "ethereum",
  "devdoc": {
    "kind": "dev",
    "methods": {},
    "version": 1
  },
  "userdoc": {
    "kind": "user",
    "methods": {},
    "version": 1
  }
}